{
  "_format": "hh-sol-artifact-1",
  "contractName": "SimpleAirdropHandler",
  "sourceName": "contracts/SimpleAirdropHandler.sol",
  "abi": [
    {
      "anonymous": false,
      "inputs": [
        {
          "indexed": false,
          "internalType": "address",
          "name": "previousAdmin",
          "type": "address"
        },
        {
          "indexed": false,
          "internalType": "address",
          "name": "newAdmin",
          "type": "address"
        }
      ],
      "name": "AdminChanged",
      "type": "event"
    },
    {
      "anonymous": false,
      "inputs": [
        {
          "indexed": true,
          "internalType": "address",
          "name": "user",
          "type": "address"
        },
        {
          "indexed": true,
          "internalType": "address",
          "name": "token",
          "type": "address"
        },
        {
          "indexed": false,
          "internalType": "uint256",
          "name": "amount",
          "type": "uint256"
        }
      ],
      "name": "AirdropClaimed",
      "type": "event"
    },
    {
      "anonymous": false,
      "inputs": [
        {
          "indexed": true,
          "internalType": "address",
          "name": "beacon",
          "type": "address"
        }
      ],
      "name": "BeaconUpgraded",
      "type": "event"
    },
    {
      "anonymous": false,
      "inputs": [
        {
          "indexed": false,
          "internalType": "uint8",
          "name": "version",
          "type": "uint8"
        }
      ],
      "name": "Initialized",
      "type": "event"
    },
    {
      "anonymous": false,
      "inputs": [
        {
          "indexed": false,
          "internalType": "address",
          "name": "account",
          "type": "address"
        }
      ],
      "name": "Paused",
      "type": "event"
    },
    {
      "anonymous": false,
      "inputs": [
        {
          "indexed": true,
          "internalType": "bytes32",
          "name": "role",
          "type": "bytes32"
        },
        {
          "indexed": true,
          "internalType": "bytes32",
          "name": "previousAdminRole",
          "type": "bytes32"
        },
        {
          "indexed": true,
          "internalType": "bytes32",
          "name": "newAdminRole",
          "type": "bytes32"
        }
      ],
      "name": "RoleAdminChanged",
      "type": "event"
    },
    {
      "anonymous": false,
      "inputs": [
        {
          "indexed": true,
          "internalType": "bytes32",
          "name": "role",
          "type": "bytes32"
        },
        {
          "indexed": true,
          "internalType": "address",
          "name": "account",
          "type": "address"
        },
        {
          "indexed": true,
          "internalType": "address",
          "name": "sender",
          "type": "address"
        }
      ],
      "name": "RoleGranted",
      "type": "event"
    },
    {
      "anonymous": false,
      "inputs": [
        {
          "indexed": true,
          "internalType": "bytes32",
          "name": "role",
          "type": "bytes32"
        },
        {
          "indexed": true,
          "internalType": "address",
          "name": "account",
          "type": "address"
        },
        {
          "indexed": true,
          "internalType": "address",
          "name": "sender",
          "type": "address"
        }
      ],
      "name": "RoleRevoked",
      "type": "event"
    },
    {
      "anonymous": false,
      "inputs": [
        {
          "indexed": false,
          "internalType": "address",
          "name": "account",
          "type": "address"
        }
      ],
      "name": "Unpaused",
      "type": "event"
    },
    {
      "anonymous": false,
      "inputs": [
        {
          "indexed": true,
          "internalType": "address",
          "name": "implementation",
          "type": "address"
        }
      ],
      "name": "Upgraded",
      "type": "event"
    },
    {
      "inputs": [],
      "name": "DEFAULT_ADMIN_ROLE",
      "outputs": [
        {
          "internalType": "bytes32",
          "name": "",
          "type": "bytes32"
        }
      ],
      "stateMutability": "view",
      "type": "function"
    },
    {
      "inputs": [],
      "name": "UPGRADER_ROLE",
      "outputs": [
        {
          "internalType": "bytes32",
          "name": "",
          "type": "bytes32"
        }
      ],
      "stateMutability": "view",
      "type": "function"
    },
    {
      "inputs": [
        {
          "internalType": "address",
          "name": "",
          "type": "address"
        }
      ],
      "name": "airdropInfo",
      "outputs": [
        {
          "internalType": "uint256",
          "name": "totalAmount",
          "type": "uint256"
        },
        {
          "internalType": "address",
          "name": "collateralToken",
          "type": "address"
        },
        {
          "internalType": "uint256",
          "name": "amount",
          "type": "uint256"
        },
        {
          "internalType": "uint256",
          "name": "startTime",
          "type": "uint256"
        },
        {
          "internalType": "uint256",
          "name": "period",
          "type": "uint256"
        },
        {
          "internalType": "bytes32",
          "name": "merkleRoot",
          "type": "bytes32"
        },
        {
          "internalType": "bool",
          "name": "moneyback",
          "type": "bool"
        }
      ],
      "stateMutability": "view",
      "type": "function"
    },
    {
      "inputs": [
        {
          "internalType": "bool",
          "name": "_status",
          "type": "bool"
        }
      ],
      "name": "changeUpgradeStatus",
      "outputs": [],
      "stateMutability": "nonpayable",
      "type": "function"
    },
    {
      "inputs": [
        {
          "internalType": "address",
          "name": "user",
          "type": "address"
        },
        {
          "internalType": "address",
          "name": "token",
          "type": "address"
        }
      ],
      "name": "claimAirdrop",
      "outputs": [
        {
          "internalType": "uint256",
          "name": "",
          "type": "uint256"
        }
      ],
      "stateMutability": "nonpayable",
      "type": "function"
    },
    {
      "inputs": [
        {
          "internalType": "bytes32",
          "name": "role",
          "type": "bytes32"
        }
      ],
      "name": "getRoleAdmin",
      "outputs": [
        {
          "internalType": "bytes32",
          "name": "",
          "type": "bytes32"
        }
      ],
      "stateMutability": "view",
      "type": "function"
    },
    {
      "inputs": [
        {
          "internalType": "bytes32",
          "name": "role",
          "type": "bytes32"
        },
        {
          "internalType": "address",
          "name": "account",
          "type": "address"
        }
      ],
      "name": "grantRole",
      "outputs": [],
      "stateMutability": "nonpayable",
      "type": "function"
    },
    {
      "inputs": [
        {
          "internalType": "bytes32",
          "name": "role",
          "type": "bytes32"
        },
        {
          "internalType": "address",
          "name": "account",
          "type": "address"
        }
      ],
      "name": "hasRole",
      "outputs": [
        {
          "internalType": "bool",
          "name": "",
          "type": "bool"
        }
      ],
      "stateMutability": "view",
      "type": "function"
    },
    {
      "inputs": [],
      "name": "initialize",
      "outputs": [],
      "stateMutability": "nonpayable",
      "type": "function"
    },
    {
      "inputs": [
        {
          "internalType": "address",
          "name": "token",
          "type": "address"
        },
        {
          "internalType": "uint256",
          "name": "amount",
          "type": "uint256"
        },
        {
          "internalType": "uint256",
          "name": "airdropPeriod",
          "type": "uint256"
        },
        {
          "internalType": "bytes32",
          "name": "merkleRoot",
          "type": "bytes32"
        },
        {
          "internalType": "bool",
          "name": "moneyback",
          "type": "bool"
        }
      ],
      "name": "launchAirdrop",
      "outputs": [],
      "stateMutability": "nonpayable",
      "type": "function"
    },
    {
      "inputs": [],
      "name": "pause",
      "outputs": [],
      "stateMutability": "nonpayable",
      "type": "function"
    },
    {
      "inputs": [],
      "name": "paused",
      "outputs": [
        {
          "internalType": "bool",
          "name": "",
          "type": "bool"
        }
      ],
      "stateMutability": "view",
      "type": "function"
    },
    {
      "inputs": [
        {
          "internalType": "address",
          "name": "token",
          "type": "address"
        }
      ],
      "name": "previewAirDrop",
      "outputs": [
        {
          "internalType": "uint256",
          "name": "",
          "type": "uint256"
        }
      ],
      "stateMutability": "view",
      "type": "function"
    },
    {
      "inputs": [],
      "name": "proxiableUUID",
      "outputs": [
        {
          "internalType": "bytes32",
          "name": "",
          "type": "bytes32"
        }
      ],
      "stateMutability": "view",
      "type": "function"
    },
    {
      "inputs": [
        {
          "internalType": "bytes32",
          "name": "role",
          "type": "bytes32"
        },
        {
          "internalType": "address",
          "name": "account",
          "type": "address"
        }
      ],
      "name": "renounceRole",
      "outputs": [],
      "stateMutability": "nonpayable",
      "type": "function"
    },
    {
      "inputs": [
        {
          "internalType": "bytes32",
          "name": "role",
          "type": "bytes32"
        },
        {
          "internalType": "address",
          "name": "account",
          "type": "address"
        }
      ],
      "name": "revokeRole",
      "outputs": [],
      "stateMutability": "nonpayable",
      "type": "function"
    },
    {
      "inputs": [
        {
          "internalType": "address",
          "name": "_stakingHandler",
          "type": "address"
        }
      ],
      "name": "setStakingHandler",
      "outputs": [],
      "stateMutability": "nonpayable",
      "type": "function"
    },
    {
      "inputs": [],
      "name": "stakingHandler",
      "outputs": [
        {
          "internalType": "address",
          "name": "",
          "type": "address"
        }
      ],
      "stateMutability": "view",
      "type": "function"
    },
    {
      "inputs": [
        {
          "internalType": "bytes4",
          "name": "interfaceId",
          "type": "bytes4"
        }
      ],
      "name": "supportsInterface",
      "outputs": [
        {
          "internalType": "bool",
          "name": "",
          "type": "bool"
        }
      ],
      "stateMutability": "view",
      "type": "function"
    },
    {
      "inputs": [],
      "name": "unpause",
      "outputs": [],
      "stateMutability": "nonpayable",
      "type": "function"
    },
    {
      "inputs": [],
      "name": "upgradeStatus",
      "outputs": [
        {
          "internalType": "bool",
          "name": "",
          "type": "bool"
        }
      ],
      "stateMutability": "view",
      "type": "function"
    },
    {
      "inputs": [
        {
          "internalType": "address",
          "name": "newImplementation",
          "type": "address"
        }
      ],
      "name": "upgradeTo",
      "outputs": [],
      "stateMutability": "nonpayable",
      "type": "function"
    },
    {
      "inputs": [
        {
          "internalType": "address",
          "name": "newImplementation",
          "type": "address"
        },
        {
          "internalType": "bytes",
          "name": "data",
          "type": "bytes"
        }
      ],
      "name": "upgradeToAndCall",
      "outputs": [],
      "stateMutability": "payable",
      "type": "function"
    }
  ],
  "bytecode": "0x60a06040523073ffffffffffffffffffffffffffffffffffffffff1660809073ffffffffffffffffffffffffffffffffffffffff1681525034801561004357600080fd5b50608051612f4961007b6000396000818161073d015281816107cb015281816108dd0152818161096b0152610a1b0152612f496000f3fe6080604052600436106101405760003560e01c806366e1b755116100b6578063a217fddf1161006f578063a217fddf1461043f578063c2f403a31461046a578063d4d543c514610493578063d547741f146104be578063d701f523146104e7578063f72c0d8b1461051057610140565b806366e1b75514610343578063690824e2146103805780638129fc1c146103a95780638456cb59146103c0578063855902b7146103d757806391d148541461040257610140565b806336568abe1161010857806336568abe146102685780633659cfe6146102915780633f4ba83a146102ba5780634f1ef286146102d157806352d1902d146102ed5780635c975abb1461031857610140565b806301ffc9a7146101455780630bac2f7614610182578063248a9ca3146101bf5780632d63d3e1146101fc5780632f2ff15d1461023f575b600080fd5b34801561015157600080fd5b5061016c60048036038101906101679190611d63565b61053b565b6040516101799190611dab565b60405180910390f35b34801561018e57600080fd5b506101a960048036038101906101a49190611e24565b6105b5565b6040516101b69190611e6a565b60405180910390f35b3480156101cb57600080fd5b506101e660048036038101906101e19190611ebb565b610607565b6040516101f39190611ef7565b60405180910390f35b34801561020857600080fd5b50610223600480360381019061021e9190611e24565b610627565b6040516102369796959493929190611f21565b60405180910390f35b34801561024b57600080fd5b5061026660048036038101906102619190611f90565b610697565b005b34801561027457600080fd5b5061028f600480360381019061028a9190611f90565b6106b8565b005b34801561029d57600080fd5b506102b860048036038101906102b39190611e24565b61073b565b005b3480156102c657600080fd5b506102cf6108c3565b005b6102eb60048036038101906102e69190612116565b6108db565b005b3480156102f957600080fd5b50610302610a17565b60405161030f9190611ef7565b60405180910390f35b34801561032457600080fd5b5061032d610ad0565b60405161033a9190611dab565b60405180910390f35b34801561034f57600080fd5b5061036a60048036038101906103659190612172565b610ae7565b6040516103779190611e6a565b60405180910390f35b34801561038c57600080fd5b506103a760048036038101906103a2919061220a565b610bf5565b005b3480156103b557600080fd5b506103be610cc4565b005b3480156103cc57600080fd5b506103d5610e49565b005b3480156103e357600080fd5b506103ec610e61565b6040516103f99190612285565b60405180910390f35b34801561040e57600080fd5b5061042960048036038101906104249190611f90565b610e88565b6040516104369190611dab565b60405180910390f35b34801561044b57600080fd5b50610454610ef3565b6040516104619190611ef7565b60405180910390f35b34801561047657600080fd5b50610491600480360381019061048c9190611e24565b610efa565b005b34801561049f57600080fd5b506104a8610f4d565b6040516104b59190611dab565b60405180910390f35b3480156104ca57600080fd5b506104e560048036038101906104e09190611f90565b610f61565b005b3480156104f357600080fd5b5061050e600480360381019061050991906122a0565b610f82565b005b34801561051c57600080fd5b50610525610fae565b6040516105329190611ef7565b60405180910390f35b60007f7965db0b000000000000000000000000000000000000000000000000000000007bffffffffffffffffffffffffffffffffffffffffffffffffffffffff1916827bffffffffffffffffffffffffffffffffffffffffffffffffffffffff191614806105ae57506105ad82610fd2565b5b9050919050565b60008061012e60008473ffffffffffffffffffffffffffffffffffffffff1673ffffffffffffffffffffffffffffffffffffffff16815260200190815260200160002090508060000154915050919050565b600060976000838152602001908152602001600020600101549050919050565b61012e6020528060005260406000206000915090508060000154908060010160009054906101000a900473ffffffffffffffffffffffffffffffffffffffff16908060020154908060030154908060040154908060050154908060060160009054906101000a900460ff16905087565b6106a082610607565b6106a98161103c565b6106b38383611050565b505050565b6106c0611131565b73ffffffffffffffffffffffffffffffffffffffff168173ffffffffffffffffffffffffffffffffffffffff161461072d576040517f08c379a000000000000000000000000000000000000000000000000000000000815260040161072490612350565b60405180910390fd5b6107378282611139565b5050565b7f000000000000000000000000000000000000000000000000000000000000000073ffffffffffffffffffffffffffffffffffffffff163073ffffffffffffffffffffffffffffffffffffffff16036107c9576040517f08c379a00000000000000000000000000000000000000000000000000000000081526004016107c0906123e2565b60405180910390fd5b7f000000000000000000000000000000000000000000000000000000000000000073ffffffffffffffffffffffffffffffffffffffff1661080861121b565b73ffffffffffffffffffffffffffffffffffffffff161461085e576040517f08c379a000000000000000000000000000000000000000000000000000000000815260040161085590612474565b60405180910390fd5b61086781611272565b6108c081600067ffffffffffffffff81111561088657610885611feb565b5b6040519080825280601f01601f1916602001820160405280156108b85781602001600182028036833780820191505090505b50600061130c565b50565b6000801b6108d08161103c565b6108d861147a565b50565b7f000000000000000000000000000000000000000000000000000000000000000073ffffffffffffffffffffffffffffffffffffffff163073ffffffffffffffffffffffffffffffffffffffff1603610969576040517f08c379a0000000000000000000000000000000000000000000000000000000008152600401610960906123e2565b60405180910390fd5b7f000000000000000000000000000000000000000000000000000000000000000073ffffffffffffffffffffffffffffffffffffffff166109a861121b565b73ffffffffffffffffffffffffffffffffffffffff16146109fe576040517f08c379a00000000000000000000000000000000000000000000000000000000081526004016109f590612474565b60405180910390fd5b610a0782611272565b610a138282600161130c565b5050565b60007f000000000000000000000000000000000000000000000000000000000000000073ffffffffffffffffffffffffffffffffffffffff163073ffffffffffffffffffffffffffffffffffffffff1614610aa7576040517f08c379a0000000000000000000000000000000000000000000000000000000008152600401610a9e90612506565b60405180910390fd5b7f360894a13ba1a3210667c828492db98dca3e2076cc3735a920a3ca505d382bbc60001b905090565b6000603360009054906101000a900460ff16905090565b60008061012e60008473ffffffffffffffffffffffffffffffffffffffff1673ffffffffffffffffffffffffffffffffffffffff16815260200190815260200160002090504281600401548260030154610b419190612555565b11610b81576040517f08c379a0000000000000000000000000000000000000000000000000000000008152600401610b78906125d5565b60405180910390fd5b60007f044852b2a670ade5407e78fb2863c51de9fcb96542a07186fe3aeda6bb8a116d604051602001610bb49190612616565b604051602081830303815290604052905060008260020154905080836000016000828254610be29190612631565b9250508190555080935050505092915050565b600061012e60008773ffffffffffffffffffffffffffffffffffffffff1673ffffffffffffffffffffffffffffffffffffffff1681526020019081526020016000209050848160020181905550428160030181905550838160040181905550858160010160006101000a81548173ffffffffffffffffffffffffffffffffffffffff021916908373ffffffffffffffffffffffffffffffffffffffff160217905550828160050181905550818160060160006101000a81548160ff021916908315150217905550505050505050565b60008060019054906101000a900460ff16159050808015610cf55750600160008054906101000a900460ff1660ff16105b80610d225750610d04306114dd565b158015610d215750600160008054906101000a900460ff1660ff16145b5b610d61576040517f08c379a0000000000000000000000000000000000000000000000000000000008152600401610d58906126d7565b60405180910390fd5b60016000806101000a81548160ff021916908360ff1602179055508015610d9e576001600060016101000a81548160ff0219169083151502179055505b610da6611500565b610dae611559565b610db66115aa565b610dc36000801b336115fb565b610ded7f189ab7a9244df0848122154315af71fe140f3db0fe014031783b0946b8c9d2e3336115fb565b8015610e465760008060016101000a81548160ff0219169083151502179055507f7f26b83ff96e1f2b6a682f133852f6798a09c465da95921460cefb38474024986001604051610e3d9190612749565b60405180910390a15b50565b6000801b610e568161103c565b610e5e611609565b50565b61012d60019054906101000a900473ffffffffffffffffffffffffffffffffffffffff1681565b60006097600084815260200190815260200160002060000160008373ffffffffffffffffffffffffffffffffffffffff1673ffffffffffffffffffffffffffffffffffffffff16815260200190815260200160002060009054906101000a900460ff16905092915050565b6000801b81565b6000801b610f078161103c565b8161012d60016101000a81548173ffffffffffffffffffffffffffffffffffffffff021916908373ffffffffffffffffffffffffffffffffffffffff1602179055505050565b61012d60009054906101000a900460ff1681565b610f6a82610607565b610f738161103c565b610f7d8383611139565b505050565b6000801b610f8f8161103c565b8161012d60006101000a81548160ff0219169083151502179055505050565b7f189ab7a9244df0848122154315af71fe140f3db0fe014031783b0946b8c9d2e381565b60007f01ffc9a7000000000000000000000000000000000000000000000000000000007bffffffffffffffffffffffffffffffffffffffffffffffffffffffff1916827bffffffffffffffffffffffffffffffffffffffffffffffffffffffff1916149050919050565b61104d81611048611131565b61166c565b50565b61105a8282610e88565b61112d5760016097600084815260200190815260200160002060000160008373ffffffffffffffffffffffffffffffffffffffff1673ffffffffffffffffffffffffffffffffffffffff16815260200190815260200160002060006101000a81548160ff0219169083151502179055506110d2611131565b73ffffffffffffffffffffffffffffffffffffffff168173ffffffffffffffffffffffffffffffffffffffff16837f2f8788117e7eff1d82e926ec794901d17c78024a50270940304540a733656f0d60405160405180910390a45b5050565b600033905090565b6111438282610e88565b156112175760006097600084815260200190815260200160002060000160008373ffffffffffffffffffffffffffffffffffffffff1673ffffffffffffffffffffffffffffffffffffffff16815260200190815260200160002060006101000a81548160ff0219169083151502179055506111bc611131565b73ffffffffffffffffffffffffffffffffffffffff168173ffffffffffffffffffffffffffffffffffffffff16837ff6391f5c32d9c69d2a47ea670b442974b53935d1edc7fd64eb21e047a839171b60405160405180910390a45b5050565b60006112497f360894a13ba1a3210667c828492db98dca3e2076cc3735a920a3ca505d382bbc60001b6116f1565b60000160009054906101000a900473ffffffffffffffffffffffffffffffffffffffff16905090565b7f189ab7a9244df0848122154315af71fe140f3db0fe014031783b0946b8c9d2e361129c8161103c565b61012d60009054906101000a900460ff166112ec576040517f08c379a00000000000000000000000000000000000000000000000000000000081526004016112e3906127d6565b60405180910390fd5b600061012d60006101000a81548160ff0219169083151502179055505050565b6113387f4910fdfa16fed3260ed0e7147f7cc6da11a60208b5b9406d12a635614ffd914360001b6116fb565b60000160009054906101000a900460ff161561135c5761135783611705565b611475565b8273ffffffffffffffffffffffffffffffffffffffff166352d1902d6040518163ffffffff1660e01b8152600401602060405180830381865afa9250505080156113c457506040513d601f19601f820116820180604052508101906113c1919061280b565b60015b611403576040517f08c379a00000000000000000000000000000000000000000000000000000000081526004016113fa906128aa565b60405180910390fd5b7f360894a13ba1a3210667c828492db98dca3e2076cc3735a920a3ca505d382bbc60001b8114611468576040517f08c379a000000000000000000000000000000000000000000000000000000000815260040161145f9061293c565b60405180910390fd5b506114748383836117be565b5b505050565b6114826117ea565b6000603360006101000a81548160ff0219169083151502179055507f5db9ee0a495bf2e6ff9c91a7834c1ba4fdd244a5e8aa4e537bd38aeae4b073aa6114c6611131565b6040516114d39190612285565b60405180910390a1565b6000808273ffffffffffffffffffffffffffffffffffffffff163b119050919050565b600060019054906101000a900460ff1661154f576040517f08c379a0000000000000000000000000000000000000000000000000000000008152600401611546906129ce565b60405180910390fd5b611557611833565b565b600060019054906101000a900460ff166115a8576040517f08c379a000000000000000000000000000000000000000000000000000000000815260040161159f906129ce565b60405180910390fd5b565b600060019054906101000a900460ff166115f9576040517f08c379a00000000000000000000000000000000000000000000000000000000081526004016115f0906129ce565b60405180910390fd5b565b6116058282611050565b5050565b61161161189f565b6001603360006101000a81548160ff0219169083151502179055507f62e78cea01bee320cd4e420270b5ea74000d11b0c9f74754ebdbfc544b05a258611655611131565b6040516116629190612285565b60405180910390a1565b6116768282610e88565b6116ed57611683816118e9565b6116918360001c6020611916565b6040516020016116a2929190612af7565b6040516020818303038152906040526040517f08c379a00000000000000000000000000000000000000000000000000000000081526004016116e49190612b6a565b60405180910390fd5b5050565b6000819050919050565b6000819050919050565b61170e816114dd565b61174d576040517f08c379a000000000000000000000000000000000000000000000000000000000815260040161174490612bfe565b60405180910390fd5b8061177a7f360894a13ba1a3210667c828492db98dca3e2076cc3735a920a3ca505d382bbc60001b6116f1565b60000160006101000a81548173ffffffffffffffffffffffffffffffffffffffff021916908373ffffffffffffffffffffffffffffffffffffffff16021790555050565b6117c783611b52565b6000825111806117d45750805b156117e5576117e38383611ba1565b505b505050565b6117f2610ad0565b611831576040517f08c379a000000000000000000000000000000000000000000000000000000000815260040161182890612c6a565b60405180910390fd5b565b600060019054906101000a900460ff16611882576040517f08c379a0000000000000000000000000000000000000000000000000000000008152600401611879906129ce565b60405180910390fd5b6000603360006101000a81548160ff021916908315150217905550565b6118a7610ad0565b156118e7576040517f08c379a00000000000000000000000000000000000000000000000000000000081526004016118de90612cd6565b60405180910390fd5b565b606061190f8273ffffffffffffffffffffffffffffffffffffffff16601460ff16611916565b9050919050565b6060600060028360026119299190612cf6565b6119339190612555565b67ffffffffffffffff81111561194c5761194b611feb565b5b6040519080825280601f01601f19166020018201604052801561197e5781602001600182028036833780820191505090505b5090507f3000000000000000000000000000000000000000000000000000000000000000816000815181106119b6576119b5612d38565b5b60200101907effffffffffffffffffffffffffffffffffffffffffffffffffffffffffffff1916908160001a9053507f780000000000000000000000000000000000000000000000000000000000000081600181518110611a1a57611a19612d38565b5b60200101907effffffffffffffffffffffffffffffffffffffffffffffffffffffffffffff1916908160001a90535060006001846002611a5a9190612cf6565b611a649190612555565b90505b6001811115611b04577f3031323334353637383961626364656600000000000000000000000000000000600f861660108110611aa657611aa5612d38565b5b1a60f81b828281518110611abd57611abc612d38565b5b60200101907effffffffffffffffffffffffffffffffffffffffffffffffffffffffffffff1916908160001a905350600485901c945080611afd90612d67565b9050611a67565b5060008414611b48576040517f08c379a0000000000000000000000000000000000000000000000000000000008152600401611b3f90612ddc565b60405180910390fd5b8091505092915050565b611b5b81611705565b8073ffffffffffffffffffffffffffffffffffffffff167fbc7cd75a20ee27fd9adebab32041f755214dbc6bffa90cc0225b39da2e5c2d3b60405160405180910390a250565b6060611bac836114dd565b611beb576040517f08c379a0000000000000000000000000000000000000000000000000000000008152600401611be290612e6e565b60405180910390fd5b6000808473ffffffffffffffffffffffffffffffffffffffff1684604051611c139190612ed5565b600060405180830381855af49150503d8060008114611c4e576040519150601f19603f3d011682016040523d82523d6000602084013e611c53565b606091505b5091509150611c7b8282604051806060016040528060278152602001612eed60279139611c85565b9250505092915050565b60608315611c9557829050611ca0565b611c9f8383611ca7565b5b9392505050565b600082511115611cba5781518083602001fd5b806040517f08c379a0000000000000000000000000000000000000000000000000000000008152600401611cee9190612b6a565b60405180910390fd5b6000604051905090565b600080fd5b600080fd5b60007fffffffff0000000000000000000000000000000000000000000000000000000082169050919050565b611d4081611d0b565b8114611d4b57600080fd5b50565b600081359050611d5d81611d37565b92915050565b600060208284031215611d7957611d78611d01565b5b6000611d8784828501611d4e565b91505092915050565b60008115159050919050565b611da581611d90565b82525050565b6000602082019050611dc06000830184611d9c565b92915050565b600073ffffffffffffffffffffffffffffffffffffffff82169050919050565b6000611df182611dc6565b9050919050565b611e0181611de6565b8114611e0c57600080fd5b50565b600081359050611e1e81611df8565b92915050565b600060208284031215611e3a57611e39611d01565b5b6000611e4884828501611e0f565b91505092915050565b6000819050919050565b611e6481611e51565b82525050565b6000602082019050611e7f6000830184611e5b565b92915050565b6000819050919050565b611e9881611e85565b8114611ea357600080fd5b50565b600081359050611eb581611e8f565b92915050565b600060208284031215611ed157611ed0611d01565b5b6000611edf84828501611ea6565b91505092915050565b611ef181611e85565b82525050565b6000602082019050611f0c6000830184611ee8565b92915050565b611f1b81611de6565b82525050565b600060e082019050611f36600083018a611e5b565b611f436020830189611f12565b611f506040830188611e5b565b611f5d6060830187611e5b565b611f6a6080830186611e5b565b611f7760a0830185611ee8565b611f8460c0830184611d9c565b98975050505050505050565b60008060408385031215611fa757611fa6611d01565b5b6000611fb585828601611ea6565b9250506020611fc685828601611e0f565b9150509250929050565b600080fd5b600080fd5b6000601f19601f8301169050919050565b7f4e487b7100000000000000000000000000000000000000000000000000000000600052604160045260246000fd5b61202382611fda565b810181811067ffffffffffffffff8211171561204257612041611feb565b5b80604052505050565b6000612055611cf7565b9050612061828261201a565b919050565b600067ffffffffffffffff82111561208157612080611feb565b5b61208a82611fda565b9050602081019050919050565b82818337600083830152505050565b60006120b96120b484612066565b61204b565b9050828152602081018484840111156120d5576120d4611fd5565b5b6120e0848285612097565b509392505050565b600082601f8301126120fd576120fc611fd0565b5b813561210d8482602086016120a6565b91505092915050565b6000806040838503121561212d5761212c611d01565b5b600061213b85828601611e0f565b925050602083013567ffffffffffffffff81111561215c5761215b611d06565b5b612168858286016120e8565b9150509250929050565b6000806040838503121561218957612188611d01565b5b600061219785828601611e0f565b92505060206121a885828601611e0f565b9150509250929050565b6121bb81611e51565b81146121c657600080fd5b50565b6000813590506121d8816121b2565b92915050565b6121e781611d90565b81146121f257600080fd5b50565b600081359050612204816121de565b92915050565b600080600080600060a0868803121561222657612225611d01565b5b600061223488828901611e0f565b9550506020612245888289016121c9565b9450506040612256888289016121c9565b935050606061226788828901611ea6565b9250506080612278888289016121f5565b9150509295509295909350565b600060208201905061229a6000830184611f12565b92915050565b6000602082840312156122b6576122b5611d01565b5b60006122c4848285016121f5565b91505092915050565b600082825260208201905092915050565b7f416363657373436f6e74726f6c3a2063616e206f6e6c792072656e6f756e636560008201527f20726f6c657320666f722073656c660000000000000000000000000000000000602082015250565b600061233a602f836122cd565b9150612345826122de565b604082019050919050565b600060208201905081810360008301526123698161232d565b9050919050565b7f46756e6374696f6e206d7573742062652063616c6c6564207468726f7567682060008201527f64656c656761746563616c6c0000000000000000000000000000000000000000602082015250565b60006123cc602c836122cd565b91506123d782612370565b604082019050919050565b600060208201905081810360008301526123fb816123bf565b9050919050565b7f46756e6374696f6e206d7573742062652063616c6c6564207468726f7567682060008201527f6163746976652070726f78790000000000000000000000000000000000000000602082015250565b600061245e602c836122cd565b915061246982612402565b604082019050919050565b6000602082019050818103600083015261248d81612451565b9050919050565b7f555550535570677261646561626c653a206d757374206e6f742062652063616c60008201527f6c6564207468726f7567682064656c656761746563616c6c0000000000000000602082015250565b60006124f06038836122cd565b91506124fb82612494565b604082019050919050565b6000602082019050818103600083015261251f816124e3565b9050919050565b7f4e487b7100000000000000000000000000000000000000000000000000000000600052601160045260246000fd5b600061256082611e51565b915061256b83611e51565b925082820190508082111561258357612582612526565b5b92915050565b7f41697264726f7020697320657870697265640000000000000000000000000000600082015250565b60006125bf6012836122cd565b91506125ca82612589565b602082019050919050565b600060208201905081810360008301526125ee816125b2565b9050919050565b6000819050919050565b61261061260b82611e85565b6125f5565b82525050565b600061262282846125ff565b60208201915081905092915050565b600061263c82611e51565b915061264783611e51565b925082820390508181111561265f5761265e612526565b5b92915050565b7f496e697469616c697a61626c653a20636f6e747261637420697320616c72656160008201527f647920696e697469616c697a6564000000000000000000000000000000000000602082015250565b60006126c1602e836122cd565b91506126cc82612665565b604082019050919050565b600060208201905081810360008301526126f0816126b4565b9050919050565b6000819050919050565b600060ff82169050919050565b6000819050919050565b600061273361272e612729846126f7565b61270e565b612701565b9050919050565b61274381612718565b82525050565b600060208201905061275e600083018461273a565b92915050565b7f5374616b696e6748616e646c65723a2055706772616465206e6f7420616c6c6f60008201527f7765640000000000000000000000000000000000000000000000000000000000602082015250565b60006127c06023836122cd565b91506127cb82612764565b604082019050919050565b600060208201905081810360008301526127ef816127b3565b9050919050565b60008151905061280581611e8f565b92915050565b60006020828403121561282157612820611d01565b5b600061282f848285016127f6565b91505092915050565b7f45524331393637557067726164653a206e657720696d706c656d656e7461746960008201527f6f6e206973206e6f742055555053000000000000000000000000000000000000602082015250565b6000612894602e836122cd565b915061289f82612838565b604082019050919050565b600060208201905081810360008301526128c381612887565b9050919050565b7f45524331393637557067726164653a20756e737570706f727465642070726f7860008201527f6961626c65555549440000000000000000000000000000000000000000000000602082015250565b60006129266029836122cd565b9150612931826128ca565b604082019050919050565b6000602082019050818103600083015261295581612919565b9050919050565b7f496e697469616c697a61626c653a20636f6e7472616374206973206e6f74206960008201527f6e697469616c697a696e67000000000000000000000000000000000000000000602082015250565b60006129b8602b836122cd565b91506129c38261295c565b604082019050919050565b600060208201905081810360008301526129e7816129ab565b9050919050565b600081905092915050565b7f416363657373436f6e74726f6c3a206163636f756e7420000000000000000000600082015250565b6000612a2f6017836129ee565b9150612a3a826129f9565b601782019050919050565b600081519050919050565b60005b83811015612a6e578082015181840152602081019050612a53565b60008484015250505050565b6000612a8582612a45565b612a8f81856129ee565b9350612a9f818560208601612a50565b80840191505092915050565b7f206973206d697373696e6720726f6c6520000000000000000000000000000000600082015250565b6000612ae16011836129ee565b9150612aec82612aab565b601182019050919050565b6000612b0282612a22565b9150612b0e8285612a7a565b9150612b1982612ad4565b9150612b258284612a7a565b91508190509392505050565b6000612b3c82612a45565b612b4681856122cd565b9350612b56818560208601612a50565b612b5f81611fda565b840191505092915050565b60006020820190508181036000830152612b848184612b31565b905092915050565b7f455243313936373a206e657720696d706c656d656e746174696f6e206973206e60008201527f6f74206120636f6e747261637400000000000000000000000000000000000000602082015250565b6000612be8602d836122cd565b9150612bf382612b8c565b604082019050919050565b60006020820190508181036000830152612c1781612bdb565b9050919050565b7f5061757361626c653a206e6f7420706175736564000000000000000000000000600082015250565b6000612c546014836122cd565b9150612c5f82612c1e565b602082019050919050565b60006020820190508181036000830152612c8381612c47565b9050919050565b7f5061757361626c653a2070617573656400000000000000000000000000000000600082015250565b6000612cc06010836122cd565b9150612ccb82612c8a565b602082019050919050565b60006020820190508181036000830152612cef81612cb3565b9050919050565b6000612d0182611e51565b9150612d0c83611e51565b9250828202612d1a81611e51565b91508282048414831517612d3157612d30612526565b5b5092915050565b7f4e487b7100000000000000000000000000000000000000000000000000000000600052603260045260246000fd5b6000612d7282611e51565b915060008203612d8557612d84612526565b5b600182039050919050565b7f537472696e67733a20686578206c656e67746820696e73756666696369656e74600082015250565b6000612dc66020836122cd565b9150612dd182612d90565b602082019050919050565b60006020820190508181036000830152612df581612db9565b9050919050565b7f416464726573733a2064656c65676174652063616c6c20746f206e6f6e2d636f60008201527f6e74726163740000000000000000000000000000000000000000000000000000602082015250565b6000612e586026836122cd565b9150612e6382612dfc565b604082019050919050565b60006020820190508181036000830152612e8781612e4b565b9050919050565b600081519050919050565b600081905092915050565b6000612eaf82612e8e565b612eb98185612e99565b9350612ec9818560208601612a50565b80840191505092915050565b6000612ee18284612ea4565b91508190509291505056fe416464726573733a206c6f772d6c6576656c2064656c65676174652063616c6c206661696c6564a264697066735822122035f641fc9bfd828c175be0d813b06a69405e0e67ed07946d1f404a0ad828575f64736f6c63430008110033",
  "linkReferences": {},
  "deployedLinkReferences": {}
}